:100000000C942A000C9447000C9447000C94470071
:100010000C9447000C9447000C9447000C94470044
:100020000C9447000C9447000C94D1030C944700A7
:100030000C9447000C9447000C9447000C94470024
:100040000C9447000C9447000C9447000C94470014
:100050000C94470011241FBECFE5D8E0DEBFCDBF12
:1000600010E0A0E6B0E0E8E7F9E002C005900D92EC
:10007000A63CB107D9F720E0A6ECB0E001C01D9284
:10008000A83EB207E1F70E949E020C94BA040C94B9
:10009000000041E062E080E00E943E0385E08A9536
:1000A000F1F7000040E062E080E00E943E038FE351
:1000B0009FE10197F1F700C000000895CF93C82F8A
:1000C00040E063E080E00E943E03C4FB442740F927
:1000D00060E081E00E943E03C5FB442740F961E0F7
:1000E00081E00E943E03C6FB442740F962E081E0C4
:1000F0000E943E034C2F441F4427441F64E081E0CC
:100100000E943E030E9449004C2F417060E081E054
:100110000E943E03C1FB442740F961E081E00E9458
:100120003E03C2FB442740F962E081E00E943E03A7
:10013000C3FB442740F964E081E00E943E030E9433
:100140004900CF910895CF93C82F41E063E080E04C
:100150000E943E03C4FB442740F960E081E00E9416
:100160003E03C5FB442740F961E081E00E943E0365
:10017000C6FB442740F962E081E00E943E034C2F19
:10018000441F4427441F64E081E00E943E030E9414
:1001900049004C2F417060E081E00E943E03C1FBAA
:1001A000442740F961E081E00E943E03C2FB4427FE
:1001B00040F962E081E00E943E03C3FB442740F91E
:1001C00064E081E00E943E030E944900CF910895BF
:1001D000813059F028F0823069F0833081F0089541
:1001E00080E8860F0E945E00089580EC860F0E94D2
:1001F0005E00089584E9860F0E945E00089584EDF4
:10020000860F0E945E0008950E94A3000895CF9378
:10021000DF93EC0103C00E940401219688818111C3
:10022000FACFDF91CF9108950F931F93CF93DF9370
:10023000D0E01DC00D2F10E0C8010896880F880F70
:10024000880F0E945E00C0E00FC0F801EE0FFF1F94
:10025000EE0FFF1FEE0FFF1FE05AFF4FEC0FF11DD7
:1002600080810E940401CF5FC83078F3DF5FD8300F
:1002700008F3DF91CF911F910F91089541E063E062
:1002800080E00E94D10241E062E080E00E94D10261
:1002900041E060E081E00E94D10241E061E081E064
:1002A0000E94D10241E062E081E00E94D10241E07F
:1002B00064E081E00E94D10282E00E945E008FE152
:1002C0009EE40197F1F700C0000083E00E945E0009
:1002D0008FE891E00197F1F700C0000082E00E94F2
:1002E0005E008FE59AEE0197F1F700C0000088E20A
:1002F0000E945E008FE99FE00197F1F700C00000C7
:100300008CE00E945E008FE99FE00197F1F700C04A
:10031000000081E00E945E008FE99FE00197F1F705
:1003200000C000000E94140160E080E00E94E8002C
:100330000895CF93DF9300D000D000D0CDB7DEB7C3
:100340004AE050E0BE016F5F7F4F0E947A04CE0109
:1003500001960E94070126960FB6F894DEBF0FBEE5
:10036000CDBFDF91CF91089541E067E081E00E9429
:10037000D10241E064E080E00E94D10241E065E00A
:1003800080E00E94D10241E066E080E00E94D1025C
:100390000895813061F028F0823079F0833099F04F
:1003A000089541E067E081E00E943E03089541E046
:1003B00064E080E00E943E03089541E065E080E053
:1003C0000E943E03089541E066E080E00E943E0303
:1003D0000895813061F028F0823079F0833099F00F
:1003E000089540E067E081E00E943E03089540E008
:1003F00064E080E00E943E03089540E065E080E014
:100400000E943E03089540E066E080E00E943E03C3
:1004100008951092C60081E00E945E0060E080E0D6
:100420000E94E80080EA90E00E94070181E080934A
:10043000C9001092C8001092C7000E94E90180E034
:100440000E94E90183E00E94C90108951092C6004C
:1004500081E00E945E0060E080E00E94E8008CEA9B
:1004600090E00E9407011092C90081E08093C800CB
:100470001092C70083E00E94E90181E00E94E90137
:1004800080E00E94C90108951092C60081E00E9498
:100490005E0060E080E00E94E80085EB90E00E9452
:1004A00007011092C9001092C80081E08093C70034
:1004B00080E00E94E90183E00E94E90181E00E945E
:1004C000C90108958091C900813069F48091C60006
:1004D000811103C086E08093C6008091C6008150E0
:1004E0008093C60021C08091C800813069F480915A
:1004F000C600811103C08AE08093C6008091C600C7
:1005000081508093C60010C08091C700813061F493
:100510008091C600811103C086E08093C60080915F
:10052000C60081508093C6006FE080E00E94E80022
:100530008091C60090E00E94990108950E943E01BA
:100540000E94B40120E030E049E052E060E27EE445
:1005500080E00E94530428E833E146E252E060E282
:100560007EE481E00E94530428E93AE344E452E047
:1005700060E27EE482E00E94530422E030E042E642
:1005800052E068EE73E083E00E94530460E080E094
:100590000E94E80080EC90E00E9407010E944A045B
:1005A000FFCF813001F130F08230B1F1833009F4B6
:1005B0004CC00895413059F42AB381E090E002C064
:1005C000880F991F6A95E2F7822B8ABB08952AB398
:1005D00081E090E002C0880F991F6A95E2F780954C
:1005E00082238ABB0895413059F427B381E090E01B
:1005F00002C0880F991F6A95E2F7822B87BB089586
:1006000027B381E090E002C0880F991F6A95E2F756
:100610008095822387BB0895413059F424B381E04B
:1006200090E002C0880F991F6A95E2F7822B84BB85
:10063000089524B381E090E002C0880F991F6A9565
:10064000E2F78095822384BB0895413059F421B3A9
:1006500081E090E002C0880F991F6A95E2F7822B33
:1006600081BB089521B381E090E002C0880F991FFB
:100670006A95E2F78095822381BB0895813001F16C
:1006800030F08230B1F1833009F44CC0089541114B
:100690000CC02BB381E090E002C0880F991F6A95CF
:1006A000E2F7809582238BBB08952BB381E090E025
:1006B00002C0880F991F6A95E2F7822B8BBB0895C1
:1006C00041110CC028B381E090E002C0880F991F4F
:1006D0006A95E2F78095822388BB089528B381E06C
:1006E00090E002C0880F991F6A95E2F7822B88BBC1
:1006F000089541110CC025B381E090E002C0880F3D
:10070000991F6A95E2F78095822385BB089525B3EA
:1007100081E090E002C0880F991F6A95E2F7822B72
:1007200085BB089541110CC022B381E090E002C066
:10073000880F991F6A95E2F78095822382BB0895FE
:1007400022B381E090E002C0880F991F6A95E2F71A
:10075000822B82BB08958FB780688FBF089583B7BF
:10076000816083BF83B7826083BF83B78B7F83BF82
:1007700008958CBF089583B78F7B83BF83B788604C
:1007800083BF8AEF0E94B90389B7826089BF0E9444
:10079000AF030895009721F09093CB008093CA0097
:1007A00008951F920F920FB60F9211242F933F932B
:1007B0004F935F936F937F938F939F93AF93BF9369
:1007C000EF93FF93E091CA00F091CB00309709F0CE
:1007D0000995FF91EF91BF91AF919F918F917F917B
:1007E0006F915F914F913F912F910F900FBE0F909E
:1007F0001F9018951F93CF93DF9310E044C0C12F33
:10080000D0E0FE01EE0FFF1FEE0FFF1FEE0FFF1FE8
:10081000EC1BFD0BE453FF4F0280F381E02D30977A
:1008200089F1DE01AA0FBB1FAA0FBB1FAA0FBB1FB6
:10083000AC1BBD0BA453BF4F15968D919C91169781
:10084000009791F40995FE01EE0FFF1FEE0FFF1FB9
:10085000EE0FFF1FEC1BFD0BE453FF4F80819181D6
:100860000197968385830EC0FE01EE0FFF1FEE0FEA
:10087000FF1FEE0FFF1FEC1BFD0BE453FF4F019713
:10088000968385831F5F143008F4B9CFDF91CF9131
:100890001F9108958AEF93E00E94CA030E94AB0360
:1008A0000E94BB03089590E0FC01EE0FFF1FEE0FC6
:1008B000FF1FEE0FFF1FE81BF90BE453FF4F0280F1
:1008C000F381E02DEF2BA1F4FC01EE0FFF1FEE0FE3
:1008D000FF1FEE0FFF1FE81BF90BE453FF4F71835F
:1008E00060835383428314823683258381E0089595
:1008F00082E008954532510520F4423010F00C9406
:100900008504FB011082CB010895BB274A3031F4E6
:10091000992322F4BDE2909581959F4F0C94910408
:10092000BB27FB015527AA27880F991FAA1FA417C9
:1009300010F0A41B83955051B9F7A05DAA3308F0BD
:10094000A95DA193009779F7B111B1931192CB01F1
:100950000C94AA04DC01FC01672F71917723E1F765
:10096000329704C07C916D9370836291AE17BF077C
:08097000C8F30895F894FFCFCD
:100978000A1F1F1F1F0E0400041F11111111111F40
:10098800041F111111111F1F041F1111111F1F1F07
:10099800041F11111F1F1F1F041F111F1F1F1F1FBF
:1009A800041F1F1F1F1F1F1F00000101050515152C
:1009B80074696D652079656C6C6F770074696D6515
:1009C800207265640074696D6520677265656E00E4
:0609D80074696D6500006A
:00000001FF
